{
  "contractName": "Parking",
  "abi": [
    {
      "inputs": [],
      "stateMutability": "nonpayable",
      "type": "constructor"
    },
    {
      "anonymous": false,
      "inputs": [
        {
          "indexed": false,
          "internalType": "uint256",
          "name": "id",
          "type": "uint256"
        },
        {
          "indexed": false,
          "internalType": "bool",
          "name": "isBooked",
          "type": "bool"
        },
        {
          "indexed": false,
          "internalType": "address",
          "name": "bookedBy",
          "type": "address"
        }
      ],
      "name": "spotBooked",
      "type": "event"
    },
    {
      "inputs": [],
      "name": "availableSpots",
      "outputs": [
        {
          "internalType": "uint256",
          "name": "",
          "type": "uint256"
        }
      ],
      "stateMutability": "view",
      "type": "function",
      "constant": true
    },
    {
      "inputs": [
        {
          "internalType": "uint256",
          "name": "",
          "type": "uint256"
        }
      ],
      "name": "persons",
      "outputs": [
        {
          "internalType": "string",
          "name": "name",
          "type": "string"
        },
        {
          "internalType": "address",
          "name": "_address",
          "type": "address"
        },
        {
          "internalType": "uint256",
          "name": "totalBookings",
          "type": "uint256"
        }
      ],
      "stateMutability": "view",
      "type": "function",
      "constant": true
    },
    {
      "inputs": [
        {
          "internalType": "uint256",
          "name": "",
          "type": "uint256"
        }
      ],
      "name": "spots",
      "outputs": [
        {
          "internalType": "uint256",
          "name": "id",
          "type": "uint256"
        },
        {
          "internalType": "bool",
          "name": "isBooked",
          "type": "bool"
        },
        {
          "internalType": "address",
          "name": "bookedBy",
          "type": "address"
        }
      ],
      "stateMutability": "view",
      "type": "function",
      "constant": true
    },
    {
      "inputs": [],
      "name": "totalPersons",
      "outputs": [
        {
          "internalType": "uint256",
          "name": "",
          "type": "uint256"
        }
      ],
      "stateMutability": "view",
      "type": "function",
      "constant": true
    },
    {
      "inputs": [],
      "name": "totalSpots",
      "outputs": [
        {
          "internalType": "uint256",
          "name": "",
          "type": "uint256"
        }
      ],
      "stateMutability": "view",
      "type": "function",
      "constant": true
    },
    {
      "inputs": [
        {
          "internalType": "uint256",
          "name": "id",
          "type": "uint256"
        },
        {
          "internalType": "string",
          "name": "bookedBy",
          "type": "string"
        }
      ],
      "name": "bookSpot",
      "outputs": [],
      "stateMutability": "nonpayable",
      "type": "function"
    }
  ],
  "bytecode": "0x60806040523480156200001157600080fd5b5060006019905060005b818110156200004a57620000346200005960201b60201c565b808062000041906200017a565b9150506200001b565b50806001819055505062000225565b60405180606001604052806001600054620000759190620001c8565b8152602001600015158152602001600073ffffffffffffffffffffffffffffffffffffffff1681525060026000805481526020019081526020016000206000820151816000015560208201518160010160006101000a81548160ff02191690831515021790555060408201518160010160016101000a81548173ffffffffffffffffffffffffffffffffffffffff021916908373ffffffffffffffffffffffffffffffffffffffff1602179055509050506000808154809291906200013a906200017a565b9190505550565b7f4e487b7100000000000000000000000000000000000000000000000000000000600052601160045260246000fd5b6000819050919050565b6000620001878262000170565b91507fffffffffffffffffffffffffffffffffffffffffffffffffffffffffffffffff821415620001bd57620001bc62000141565b5b600182019050919050565b6000620001d58262000170565b9150620001e28362000170565b9250827fffffffffffffffffffffffffffffffffffffffffffffffffffffffffffffffff038211156200021a576200021962000141565b5b828201905092915050565b610b8380620002356000396000f3fe608060405234801561001057600080fd5b50600436106100625760003560e01c806306e904381461006757806309d7396a14610085578063145a8bdf146100a15780638df71743146100d3578063a2f9eac6146100f1578063e52998e314610123575b600080fd5b61006f610141565b60405161007c91906105a3565b60405180910390f35b61009f600480360381019061009a9190610744565b610147565b005b6100bb60048036038101906100b691906107a0565b6103b2565b6040516100ca93929190610829565b60405180910390f35b6100db610409565b6040516100e891906105a3565b60405180910390f35b61010b600480360381019061010691906107a0565b61040f565b60405161011a939291906108e8565b60405180910390f35b61012b6104e1565b60405161013891906105a3565b60405180910390f35b60015481565b6000600260008481526020019081526020016000206000015414156101a1576040517f08c379a000000000000000000000000000000000000000000000000000000000815260040161019890610998565b60405180910390fd5b600115156002600084815260200190815260200160002060010160009054906101000a900460ff161515141561020c576040517f08c379a000000000000000000000000000000000000000000000000000000000815260040161020390610a2a565b60405180910390fd5b60016002600084815260200190815260200160002060010160006101000a81548160ff021916908315150217905550336002600084815260200190815260200160002060010160016101000a81548173ffffffffffffffffffffffffffffffffffffffff021916908373ffffffffffffffffffffffffffffffffffffffff160217905550600160008154809291906102a390610a79565b91905055508060036000600454815260200190815260200160002060000190805190602001906102d49291906104e7565b503360036000600454815260200190815260200160002060010160006101000a81548173ffffffffffffffffffffffffffffffffffffffff021916908373ffffffffffffffffffffffffffffffffffffffff160217905550600360006004548152602001908152602001600020600201600081548092919061035590610aa3565b91905055506004600081548092919061036d90610aa3565b91905055507ffb2e24155efc60caa2c1e899576571a93b05ee6dfa012970575a9dd4b887636c826001336040516103a693929190610829565b60405180910390a15050565b60026020528060005260406000206000915090508060000154908060010160009054906101000a900460ff16908060010160019054906101000a900473ffffffffffffffffffffffffffffffffffffffff16905083565b60005481565b600360205280600052604060002060009150905080600001805461043290610b1b565b80601f016020809104026020016040519081016040528092919081815260200182805461045e90610b1b565b80156104ab5780601f10610480576101008083540402835291602001916104ab565b820191906000526020600020905b81548152906001019060200180831161048e57829003601f168201915b5050505050908060010160009054906101000a900473ffffffffffffffffffffffffffffffffffffffff16908060020154905083565b60045481565b8280546104f390610b1b565b90600052602060002090601f016020900481019282610515576000855561055c565b82601f1061052e57805160ff191683800117855561055c565b8280016001018555821561055c579182015b8281111561055b578251825591602001919060010190610540565b5b509050610569919061056d565b5090565b5b8082111561058657600081600090555060010161056e565b5090565b6000819050919050565b61059d8161058a565b82525050565b60006020820190506105b86000830184610594565b92915050565b6000604051905090565b600080fd5b600080fd5b6105db8161058a565b81146105e657600080fd5b50565b6000813590506105f8816105d2565b92915050565b600080fd5b600080fd5b6000601f19601f8301169050919050565b7f4e487b7100000000000000000000000000000000000000000000000000000000600052604160045260246000fd5b61065182610608565b810181811067ffffffffffffffff821117156106705761066f610619565b5b80604052505050565b60006106836105be565b905061068f8282610648565b919050565b600067ffffffffffffffff8211156106af576106ae610619565b5b6106b882610608565b9050602081019050919050565b82818337600083830152505050565b60006106e76106e284610694565b610679565b90508281526020810184848401111561070357610702610603565b5b61070e8482856106c5565b509392505050565b600082601f83011261072b5761072a6105fe565b5b813561073b8482602086016106d4565b91505092915050565b6000806040838503121561075b5761075a6105c8565b5b6000610769858286016105e9565b925050602083013567ffffffffffffffff81111561078a576107896105cd565b5b61079685828601610716565b9150509250929050565b6000602082840312156107b6576107b56105c8565b5b60006107c4848285016105e9565b91505092915050565b60008115159050919050565b6107e2816107cd565b82525050565b600073ffffffffffffffffffffffffffffffffffffffff82169050919050565b6000610813826107e8565b9050919050565b61082381610808565b82525050565b600060608201905061083e6000830186610594565b61084b60208301856107d9565b610858604083018461081a565b949350505050565b600081519050919050565b600082825260208201905092915050565b60005b8381101561089a57808201518184015260208101905061087f565b838111156108a9576000848401525b50505050565b60006108ba82610860565b6108c4818561086b565b93506108d481856020860161087c565b6108dd81610608565b840191505092915050565b6000606082019050818103600083015261090281866108af565b9050610911602083018561081a565b61091e6040830184610594565b949350505050565b7f546865207061726b696e672073706f7420776974682074686520676976656e2060008201527f696420646f6573206e6f74206578697374210000000000000000000000000000602082015250565b600061098260328361086b565b915061098d82610926565b604082019050919050565b600060208201905081810360008301526109b181610975565b9050919050565b7f546865207061726b696e672073706f7420697320616c726561647920626f6f6b60008201527f6564210000000000000000000000000000000000000000000000000000000000602082015250565b6000610a1460238361086b565b9150610a1f826109b8565b604082019050919050565b60006020820190508181036000830152610a4381610a07565b9050919050565b7f4e487b7100000000000000000000000000000000000000000000000000000000600052601160045260246000fd5b6000610a848261058a565b91506000821415610a9857610a97610a4a565b5b600182039050919050565b6000610aae8261058a565b91507fffffffffffffffffffffffffffffffffffffffffffffffffffffffffffffffff821415610ae157610ae0610a4a565b5b600182019050919050565b7f4e487b7100000000000000000000000000000000000000000000000000000000600052602260045260246000fd5b60006002820490506001821680610b3357607f821691505b60208210811415610b4757610b46610aec565b5b5091905056fea2646970667358221220e3d161323dc785e06d8d508c24862697ead5f89c7d3cbd10be793e480027c39c64736f6c634300080b0033",
  "immutableReferences": {},
  "source": "// SPDX-License-Identifier: MIT\r\npragma solidity ^0.8.11;\r\n\r\ncontract Parking{\r\n    // Model of a single parking spot\r\n    struct ParkingSpot{\r\n        uint id;\r\n        bool isBooked;\r\n        address bookedBy; \r\n    }\r\n\r\n    // Model of a person booking the parking spot\r\n    struct Person{\r\n        string name;\r\n        address _address;\r\n        uint totalBookings;\r\n    }\r\n\r\n    // Total count of the parking spots\r\n    uint public totalSpots;\r\n\r\n    // Count of available free spots\r\n    uint public availableSpots;\r\n    \r\n    // To store and access all the spots\r\n    mapping(uint => ParkingSpot) public spots;\r\n\r\n    // To store the people that have booked a spot\r\n    mapping(uint => Person) public persons;\r\n    uint public totalPersons;\r\n\r\n    // Event that will be called whenever a spot is booked\r\n    event spotBooked(\r\n        uint id,\r\n        bool isBooked,\r\n        address bookedBy \r\n    );\r\n\r\n    constructor() public{\r\n        uint initialSpotsCount = 25; // Means there will be total 5 booking spots only\r\n        for(uint i = 0; i < initialSpotsCount; i++){\r\n            addSpot();\r\n        }\r\n        // Available spots in the beginning\r\n        availableSpots = initialSpotsCount;\r\n    }\r\n\r\n    // To add a single parking spot\r\n    // Making it private so that not everyone can add a spot\r\n    function addSpot() private{\r\n        spots[totalSpots] = ParkingSpot(totalSpots+1, false, address(0));\r\n        totalSpots++; \r\n    }\r\n\r\n    // To book a parking spot\r\n    function bookSpot(uint id, string memory bookedBy) public{\r\n        // Checking if the id of the spot is valid or not\r\n        require(spots[id].id !=0, \"The parking spot with the given id does not exist!\");\r\n        // Checking if the spot is free or not\r\n        require(spots[id].isBooked != true, \"The parking spot is already booked!\");\r\n\r\n        // Booking the spot\r\n        spots[id].isBooked = true;\r\n        spots[id].bookedBy = msg.sender;\r\n\r\n        // Decrementing the count of the available spots\r\n        availableSpots--;\r\n\r\n        // Adding the details of the person that has booked the spot\r\n        persons[totalPersons].name = bookedBy;\r\n        persons[totalPersons]._address = msg.sender;\r\n        persons[totalPersons].totalBookings++;\r\n        totalPersons++;\r\n        emit spotBooked(id, true, msg.sender);\r\n    }\r\n}",
  "sourcePath": "C:\\Users\\hamma\\Desktop\\smart-parking-dapp\\contracts\\Parking.sol",
  "compiler": {
    "name": "solc",
    "version": "0.8.11+commit.d7f03943.Emscripten.clang"
  },
  "schemaVersion": "3.4.11",
  "updatedAt": "2022-12-04T14:19:18.403Z",
  "networkType": "ethereum",
  "devdoc": {
    "kind": "dev",
    "methods": {},
    "version": 1
  },
  "userdoc": {
    "kind": "user",
    "methods": {},
    "version": 1
  }
}